:100000000C9461000C9473000C9473000C947300B6
:100010000C9473000C9473000C9473000C94730094
:100020000C9473000C9473000C9473000C94730084
:100030000C9473000C9473000C9473000C94730074
:100040000C94FD000C9473000C9473000C947300DA
:100050000C9473000C9473000C9473000C94730054
:100060000C9473000C947300000000002300260021
:10007000290000000000240027002A0000000000E2
:10008000250028002B0004040404040404040202D4
:100090000202020203030303030301020408102007
:1000A0004080010204081020010204081020000012
:1000B0000008000201000003040700000000000027
:1000C000000011241FBECFEFD8E0DEBFCDBF21E07E
:1000D000A0E0B1E001C01D92AD30B207E1F70E948F
:1000E00047010C942F020C940000833081F028F417
:1000F000813099F08230A9F008958730A9F08830D6
:10010000C9F08430B1F4809180008F7D03C080916C
:1001100080008F7780938000089584B58F7784BDA9
:10012000089584B58F7DFBCF8091B0008F77809349
:10013000B00008958091B0008F7DF9CF1F93CF93C9
:10014000DF93282F30E0F901E255FF4F8491F90148
:10015000E656FF4FD491F901EA57FF4FC491CC23E3
:10016000A9F0162F81110E947500EC2FF0E0EE0F20
:10017000FF1FE458FF4FA591B4918FB7F894EC910D
:10018000111108C0D095DE23DC938FBFDF91CF9192
:100190001F910895DE2BF8CFCF93DF9390E0FC0101
:1001A000E656FF4F24918A579F4FFC018491882384
:1001B000D1F090E0880F991FFC01EE58FF4FA591F8
:1001C000B491FC01E458FF4FC591D49161110EC068
:1001D0009FB7F8948C91E22FE0958E238C93288121
:1001E000E223E8839FBFDF91CF9108958FB7F89402
:1001F000EC91E22BEC938FBFF6CF1F920F920FB6CC
:100200000F9211242F933F938F939F93AF93BF939C
:100210008091090190910A01A0910B01B0910C010C
:100220003091080123E0230F2D3758F50196A11DC9
:10023000B11D209308018093090190930A01A093B6
:100240000B01B0930C018091040190910501A091E4
:100250000601B09107010196A11DB11D8093040113
:1002600090930501A0930601B0930701BF91AF9150
:100270009F918F913F912F910F900FBE0F901F90E4
:10028000189526E8230F0296A11DB11DD2CF7894B0
:1002900084B5826084BD84B5816084BD85B582608B
:1002A00085BD85B5816085BD80916E00816080933C
:1002B0006E001092810080918100826080938100A5
:1002C00080918100816080938100809180008160B5
:1002D000809380008091B10084608093B100809110
:1002E000B00081608093B00080917A008460809338
:1002F0007A0080917A00826080937A0080917A00FF
:10030000816080937A0080917A00806880937A007F
:100310001092C10061E085E00E94CC0061E083E0C2
:100320000E94CC0060E086E00E94CC0004EB10E06C
:1003300090EAE92E90E0F92E2CE8C22E20E0D22E91
:1003400035E0A32EB12C40E0842E40E0942EF8013D
:100350008491F701C491F601D491DD2309F43FC0E3
:1003600081110E947500ED2FF0E0EE0FFF1FE8599C
:10037000FF4FA591B4918C91C82391E080E009F4DE
:1003800090E0C92FD82F8091020190910301B5010F
:100390000E9407029093030180930201209761F469
:1003A00020910001309101012130310529F401969D
:1003B00090930301809302018091020190910301C7
:1003C0008330910579F084309105F9F061E001976F
:1003D00051F060E085E00E949E0060E008C0D0E03F
:1003E000C0E0D1CF60E085E00E949E0061E083E044
:1003F0000E949E00D0930101C093000181149104DA
:1004000009F4A5CF0E940000A2CF61E0E3CF97FBE3
:10041000072E16F4009407D077FD09D00E941B0226
:1004200007FC05D03EF4909581959F4F08957095F7
:1004300061957F4F0895AA1BBB1B51E107C0AA1FFE
:10044000BB1FA617B70710F0A61BB70B881F991F75
:100450005A95A9F780959095BC01CD010895F8941F
:02046000FFCFCC
:00000001FF
