:100000000C9462000C948A000C948A000C948A0070
:100010000C948A000C948A000C948A000C948A0038
:100020000C948A000C948A000C948A000C948A0028
:100030000C948A000C948A000C948A000C948A0018
:100040000C9403030C948A000C948A000C948A008C
:100050000C948A000C948A000C948A000C948A00F8
:100060000C948A000C948A000000000024002700F1
:100070002A0000000000250028002B0000000000DE
:1000800023002600290004040404040404040202DA
:100090000202020203030303030301020408102007
:1000A0004080010204081020010204081020000012
:1000B0000008000201000003040700000000000027
:1000C00000008C0411241FBECFEFD8E0DEBFCDBFEF
:1000D00011E0A0E0B1E0E4EBF9E002C005900D9280
:1000E000A231B107D9F721E0A2E1B1E001C01D9230
:1000F000A134B207E1F710E0C2E6D0E004C02197D6
:10010000FE010E94D204C136D107C9F70E944D03F7
:100110000C94D8040C940000833081F028F48130D2
:1001200099F08230A9F008958730A9F08830C9F09D
:100130008430B1F4809180008F7D03C08091800075
:100140008F7780938000089584B58F7784BD08955C
:1001500084B58F7DFBCF8091B0008F778093B00006
:1001600008958091B0008F7DF9CFCF93DF93282F32
:1001700030E0F901E255FF4F8491F901E656FF4F57
:10018000D491F901EA57FF4FC491CC23A1F081111A
:100190000E948C00EC2FF0E0EE0FFF1FE458FF4FA1
:1001A000A591B491EC91ED2381E090E009F480E019
:1001B000DF91CF91089580E090E0FACF1F93CF9325
:1001C000DF93282F30E0F901E255FF4F8491F901C8
:1001D000E656FF4FD491F901EA57FF4FC491CC2363
:1001E000A9F0162F81110E948C00EC2FF0E0EE0F89
:1001F000FF1FEE58FF4FA591B4918FB7F894EC9183
:10020000111108C0D095DE23DC938FBFDF91CF9111
:100210001F910895DE2BF8CFCF93DF9390E0FC0180
:10022000E656FF4F24918A579F4FFC018491882303
:10023000D1F090E0880F991FFC01E859FF4FA5917C
:10024000B491FC01EE58FF4FC591D49161110EC0DD
:100250009FB7F8948C91E22FE0958E238C932881A0
:10026000E223E8839FBFDF91CF9108958FB7F89481
:10027000EC91E22BEC938FBFF6CF3FB7F8948091CF
:10028000250190912601A0912701B091280126B562
:10029000A89B05C02F3F19F00196A11DB11D3FBFBE
:1002A000BA2FA92F982F8827BC01CD01620F711D8D
:1002B000811D911D42E0660F771F881F991F4A9587
:1002C000D1F70895AF92BF92CF92DF92EF92FF9253
:1002D0000F931F93CF93DF936C017B018B01040F6E
:1002E000151FEB015E01AE18BF08C017D10759F00A
:1002F0006991D601ED91FC910190F081E02DC6014C
:100300000995892B79F7C501DF91CF911F910F9145
:10031000FF90EF90DF90CF90BF90AF90089545E0B1
:1003200050E06CE071E089E291E00C946201089584
:1003300090E080E00895CF93DF93EC0160E08E8140
:100340000E94DE0061E08E810E94DE0060E08E810E
:100350000E94DE008BE891E00197F1F7DF91CF91E9
:100360000895CF92DF92EF92FF920F931F93CF9356
:10037000DF936C017C0187E0E80EF11CD0E0C0E067
:10038000062F10E0B8010C2E02C0759567950A94EF
:10039000E2F76170F70181917F010E94DE002196F2
:1003A000C430D10579F7C601DF91CF911F910F912C
:1003B000FF90EF90DF90CF900C949B01CF92DF9253
:1003C000EF92FF920F931F93CF93DF93EC01F62EE2
:1003D000642F8C810E94DE008D818F3F19F060E0D8
:1003E0000E94DE000F2D10E08F8584FF25C06E0176
:1003F00087E0C80ED11CF12CE12CB8010E2C02C0F4
:10040000759567950A94E2F76170F60181916F0125
:100410000E94DE00FFEFEF1AFF0A88E0E816F10401
:1004200061F7CE01DF91CF911F910F91FF90EF9077
:10043000DF90CF900C949B01B80184E0759567958F
:100440008A95E1F7CE010E94B1016F2DCE01DF91B7
:10045000CF911F910F91FF90EF90DF90CF900C9470
:10046000B10140E0682F89E291E00C94DE0181E067
:100470000E9431028BE39FE10197F1F70895CF933A
:10048000DF93823029F4909138019860909338017D
:1004900080933C0110923D0180E480933E0180E115
:1004A00080933F0180E58093400161E080912D01C0
:1004B0000E940C0180912E018F3F19F061E00E9493
:1004C0000C0161E080912F010E940C01C9E2D1E092
:1004D0009E01295231408091380184FD0BC084E097
:1004E00090E021962817390744F461E08E810E943C
:1004F0000C01EECF88E090E0F4CF8BE39DE0019714
:10050000F1F760E080912D010E94DE0060E08091B3
:100510002F010E94DE0080912E018F3F19F060E0D4
:100520000E94DE008091380184FD34C063E089E2DE
:1005300091E00E94B101CBE4D6E4CE010197F1F73E
:1005400063E089E291E00E94B1012197F1F763E055
:1005500089E291E00E94B10183E592E00197F1F711
:1005600062E089E291E00E94B101809138018062ED
:100570000E94310284E0809339018CE00E943102B4
:100580000E94370282E080933A0186E0DF91CF91AA
:100590000C94310280620E9431028BE496E4019750
:1005A000F1F78091380180620E94310283E592E088
:1005B0000197F1F78091380180620E943102D5CF16
:1005C0000E94370280913901982F946090933901ED
:1005D0008C600E943102E1E080913C018111E0E0F9
:1005E000E195F0E0E75DFE4F848990911A01890F53
:1005F00080680E9431020C948F0141E00E94DE016C
:1006000081E090E008951F920F920FB60F9211248F
:100610002F933F938F939F93AF93BF93809121012B
:1006200090912201A0912301B091240130912001E9
:1006300023E0230F2D3758F50196A11DB11D2093FE
:1006400020018093210190932201A0932301B09374
:1006500024018091250190912601A0912701B0915C
:1006600028010196A11DB11D8093250190932601BB
:10067000A0932701B0932801BF91AF919F918F91D3
:100680003F912F910F900FBE0F901F90189526E865
:10069000230F0296A11DB11DD2CF789484B582603C
:1006A00084BD84B5816084BD85B5826085BD85B516
:1006B000816085BD80916E00816080936E00109294
:1006C000810080918100826080938100809181000F
:1006D00081608093810080918000816080938000A0
:1006E0008091B10084608093B1008091B0008160FE
:1006F0008093B00080917A00846080937A0080912A
:100700007A00826080937A0080917A008160809381
:100710007A0080917A00806880937A001092C100FC
:1007200082E00E943F0260E089E00E940C0160E0EC
:1007300088E00E940C0160E08AE00E940C0189E0E0
:100740000E94B500EC0188E00E94B5008C018AE0AF
:100750000E94B5001C018FB7F89440902101509081
:10076000220160902301709024018FBF80911E01AF
:1007700090911F0162E070E00E94AA0490931F0113
:1007800080931E01209781F520911C0130911D015D
:100790002130310549F5019690931F0180931E0188
:1007A0000E943D014B015C0184E6C82ED12CE12C56
:1007B000F12C0E943D01681979098A099B09683E5C
:1007C000734081059105A8F321E0C21AD108E10820
:1007D000F10838EE830E33E0931EA11CB11CC11446
:1007E000D104E104F10429F78091390120911E011F
:1007F00030911F01232B09F07CC0982F94609093B7
:1008000039018C600E943102E1E080913C0181114C
:10081000E0E0E195F0E0E75DFE4F848990911A01F8
:10082000890F80680E9431020E948F018091160119
:1008300090911701A0911801B0911901A3019201A3
:10084000281B390B4A0B5B0BDA01C901883E934028
:10085000A105B10508F444C00E94370221143104F7
:10086000A9F48091140190911501019779F4809178
:100870001A0190911B0102968C3091050CF040C03A
:1008800090931B0180931A010E94E002011511054B
:1008900099F48091120190911301019769F480916C
:1008A0001A0190911B01029797FD31C090931B0193
:1008B00080931A010E94E002D0931D01C0931C0195
:1008C000109313010093120130921501209214012C
:1008D00080E090E0892B09F432CF0E9400002FCFF6
:1008E00040921601509217016092180170921901FE
:1008F000B5CF8B7F8093390188600E943102AECFE3
:100900004AE050E050931B0140931A01BDCF109272
:100910001B0110921A01CECFE9E2F1E0138212829C
:1009200084E091E09183808387E084838FEF8583E7
:1009300086E0868385E0878384E0808783E0818703
:1009400082E082871386148615861686178681E0D4
:100950000C943F0297FB072E16F4009407D077FD06
:1009600009D00E94BE0407FC05D03EF49095819505
:100970009F4F0895709561957F4F0895AA1BBB1BEB
:1009800051E107C0AA1FBB1FA617B70710F0A61B8F
:10099000B70B881F991F5A95A9F780959095BC01B0
:1009A000CD010895EE0FFF1F0590F491E02D0994FD
:0409B000F894FFCFE9
:1009B40000000000FD0262019801970148454C4C7B
:0209C4004F00E2
:00000001FF
