:020000040000FA
:100000000C9462000C948A000C948A000C948A0070
:100010000C948A000C948A000C948A000C948A0038
:100020000C948A000C948A000C948A000C948A0028
:100030000C948A000C948A000C948A000C948A0018
:100040000C948D020C948A000C948A000C948A0003
:100050000C948A000C948A000C948A000C948A00F8
:100060000C948A000C948A000000000023002600F3
:10007000290000000000240027002A0000000000E2
:10008000250028002B0004040404040404040202D4
:100090000202020203030303030301020408102007
:1000A0004080010204081020010204081020000012
:1000B0000008000201000003040700000000000027
:1000C0000000C50311241FBECFEFD8E0DEBFCDBFB7
:1000D00011E0A0E0B1E0E6E2F8E002C005900D9288
:1000E000A031B107D9F721E0A0E1B1E001C01D9234
:1000F000A733B207E1F710E0C2E6D0E004C02197D1
:10010000FE010E940B04C136D107C9F70E94D70235
:100110000C9411040C940000833081F028F4813099
:1001200099F08230A9F008958730A9F08830C9F09D
:100130008430B1F4809180008F7D03C08091800075
:100140008F7780938000089584B58F7784BD08955C
:1001500084B58F7DFBCF8091B0008F778093B00006
:1001600008958091B0008F7DF9CF1F93CF93DF93D7
:10017000282F30E0F901E255FF4F8491F901E6564E
:10018000FF4FD491F901EA57FF4FC491CC23A9F056
:10019000162F81110E948C00EC2FF0E0EE0FFF1F54
:1001A000E458FF4FA591B4918FB7F894EC911111D9
:1001B00008C0D095DE23DC938FBFDF91CF911F91D4
:1001C0000895DE2BF8CFCF93DF9390E0FC01E65645
:1001D000FF4F24918A579F4FFC0184918823D1F0CF
:1001E00090E0880F991FFC01EE58FF4FA591B49144
:1001F000FC01E458FF4FC591D49161110EC09FB727
:10020000F8948C91E22FE0958E238C932881E22341
:10021000E8839FBFDF91CF9108958FB7F894EC9159
:10022000E22BEC938FBFF6CFAF92BF92CF92DF92CB
:10023000EF92FF920F931F93CF93DF936C017B019B
:100240008B01040F151FEB015E01AE18BF08C0172C
:10025000D10759F06991D601ED91FC910190F0819F
:10026000E02DC6010995892B79F7C501DF91CF9162
:100270001F910F91FF90EF90DF90CF90BF90AF90C4
:100280000895089590E080E00895CF93DF93EC0106
:1002900060E08E810E94B50061E08E810E94B50011
:1002A00060E08E810E94B5008BE891E00197F1F744
:1002B000DF91CF910895CF92DF92EF92FF920F934B
:1002C0001F93CF93DF936C017C0187E0E80EF11C54
:1002D000D0E0C0E0062F10E0B8010C2E02C07595EA
:1002E00067950A94E2F76170F70181917F010E949E
:1002F000B5002196C430D10579F7C601DF91CF91C1
:100300001F910F91FF90EF90DF90CF900C944501DB
:10031000CF92DF92EF92FF920F931F93CF93DF93D1
:10032000EC01F62E642F8C810E94B5008D818F3FE9
:1003300019F060E00E94B5000F2D10E08F8584FF5A
:1003400025C06E0187E0C80ED11CF12CE12CB8014C
:100350000E2C02C0759567950A94E2F76170F6015C
:1003600081916F010E94B500FFEFEF1AFF0A88E04C
:10037000E816F10461F7CE01DF91CF911F910F9143
:10038000FF90EF90DF90CF900C944501B80184E08E
:10039000759567958A95E1F7CE010E945B016F2DF7
:1003A000CE01DF91CF911F910F91FF90EF90DF90E1
:1003B000CF900C945B0140E0682F8FE191E00C94AA
:1003C0008801CF93DF93823029F490912E019860B9
:1003D00090932E01809332011092330180E4809338
:1003E000340180E18093350180E58093360161E03E
:1003F000809123010E94E300809124018F3F19F036
:1004000061E00E94E30061E0809125010E94E30029
:10041000CFE1D1E09E012F51314080912E0184FD2A
:100420000BC084E090E021962817390744F461E07E
:100430008E810E94E300EECF88E090E0F4CF8BE362
:100440009DE00197F1F760E0809123010E94B500E3
:1004500060E0809125010E94B500809124018F3FCA
:1004600019F060E00E94B50080912E0184FD39C032
:1004700063E08FE191E00E945B01CBE4D6E4CE0122
:100480000197F1F763E08FE191E00E945B01219712
:10049000F1F763E08FE191E00E945B0183E592E078
:1004A0000197F1F762E08FE191E00E945B0180919A
:1004B0002E0180620E94DB0184E080932F018CE09A
:1004C0000E94DB0181E00E94DB018BE39FE1019749
:1004D000F1F782E08093300186E0DF91CF910C94B8
:1004E000DB0180620E94DB018BE496E40197F1F767
:1004F00080912E0180620E94DB0183E592E00197EA
:10050000F1F780912E0180620E94DB01D0CF41E0A3
:100510000E94880181E090E008951F920F920FB62B
:100520000F9211242F933F938F939F93AF93BF9379
:1005300080911B0190911C01A0911D01B0911E01A1
:1005400030911A0123E0230F2D3758F50196A11D94
:10055000B11D20931A0180931B0190931C01A0935D
:100560001D01B0931E018091160190911701A09179
:100570001801B09119010196A11DB11D80931601BA
:1005800090931701A0931801B0931901BF91AF91F7
:100590009F918F913F912F910F900FBE0F901F90C1
:1005A000189526E8230F0296A11DB11DD2CF78948D
:1005B00084B5826084BD84B5816084BD85B5826068
:1005C00085BD85B5816085BD80916E008160809319
:1005D0006E00109281008091810082608093810082
:1005E0008091810081608093810080918000816092
:1005F000809380008091B10084608093B1008091ED
:10060000B00081608093B00080917A008460809314
:100610007A0080917A00826080937A0080917A00DB
:10062000816080937A0080917A00806880937A005C
:100630001092C10082E00E94E10161E080E00E942E
:10064000E30060E081E00E94E3009FEA892E90E0F1
:10065000992ECBE9D0E007E810E022E0E22EF12C61
:100660003BE3A32E3FE1B32E40E0C42E40E0D42E66
:10067000F4018491FE017490F801649030E020E070
:10068000662099F081110E948C00E62DF0E0EE0FBB
:10069000FF1FE859FF4FA591B4918C91782291E00A
:1006A00080E009F490E0292F382F2901032E000C57
:1006B000660877088091140190911501B7010E9496
:1006C000E3039093150180931401232B91F440913F
:1006D000100150911101609112017091130141308C
:1006E00051056105710529F40196909315018093D8
:1006F00014018091140190911501892BC9F560E0D6
:1007000080E00E94B50081E00E94DB01C5010197F5
:10071000F1F780912F01982F946090932F018C60B6
:100720000E94DB01E0913201E23000F5E150F0E09F
:10073000E15EFE4F84898F5F80680E94DB0143E0A9
:1007400050E06CE071E08FE191E00E941401409272
:100750001001509211016092120170921301C114A4
:10076000D10409F485CF0E94000082CFE1E0DFCF01
:1007700080912F018B7F80932F0188600E94DB0185
:1007800061E080E00E94B500E2CFEFE1F1E013828A
:10079000128284E091E09183808387E084838FEFED
:1007A000858386E0868385E0878384E0808783E095
:1007B000818782E0828713861486158616861786BF
:1007C00081E00C94E10197FB072E16F4009407D00A
:1007D00077FD09D00E94F70307FC05D03EF4909501
:1007E00081959F4F0895709561957F4F0895AA1B3D
:1007F000BB1B51E107C0AA1FBB1FA617B70710F00C
:10080000A61BB70B881F991F5A95A9F7809590953D
:10081000BC01CD010895EE0FFF1F0590F491E02D6E
:100820000994F894FFCF00000000870214014201F0
:0608300041012E2E2E00F6
:107E0000112484B714BE81FFF0D085E080938100F7
:107E100082E08093C00088E18093C10086E0809377
:107E2000C20080E18093C4008EE0C9D0259A86E02C
:107E300020E33CEF91E0309385002093840096BBD3
:107E4000B09BFECF1D9AA8958150A9F7CC24DD24C4
:107E500088248394B5E0AB2EA1E19A2EF3E0BF2EE7
:107E6000A2D0813461F49FD0082FAFD0023811F036
:107E7000013811F484E001C083E08DD089C08234E0
:107E800011F484E103C0853419F485E0A6D080C0E4
:107E9000853579F488D0E82EFF2485D0082F10E0AE
:107EA000102F00270E291F29000F111F8ED06801E7
:107EB0006FC0863521F484E090D080E0DECF843638
:107EC00009F040C070D06FD0082F6DD080E0C81688
:107ED00080E7D80618F4F601B7BEE895C0E0D1E017
:107EE00062D089930C17E1F7F0E0CF16F0E7DF06D8
:107EF00018F0F601B7BEE89568D007B600FCFDCFD4
:107F0000A601A0E0B1E02C9130E011968C91119780
:107F100090E0982F8827822B932B1296FA010C0160
:107F200087BEE89511244E5F5F4FF1E0A038BF0790
:107F300051F7F601A7BEE89507B600FCFDCF97BE46
:107F4000E89526C08437B1F42ED02DD0F82E2BD052
:107F50003CD0F601EF2C8F010F5F1F4F84911BD097
:107F6000EA94F801C1F70894C11CD11CFA94CF0C13
:107F7000D11C0EC0853739F428D08EE10CD085E9AC
:107F80000AD08FE07ACF813511F488E018D01DD067
:107F900080E101D065CF982F8091C00085FFFCCF94
:107FA0009093C60008958091C00087FFFCCF809118
:107FB000C00084FD01C0A8958091C6000895E0E648
:107FC000F0E098E1908380830895EDDF803219F02E
:107FD00088E0F5DFFFCF84E1DECF1F93182FE3DFCA
:107FE0001150E9F7F2DF1F91089580E0E8DFEE27F6
:047FF000FF270994CA
:027FFE00040479
:00000001FF
