:100000000C9461000C947E000C947E000C947E0095
:100010000C947E000C947E000C947E000C947E0068
:100020000C947E000C947E000C947E000C947E0058
:100030000C947E000C947E000C947E000C947E0048
:100040000C9431010C947E000C947E000C947E0084
:100050000C947E000C947E000C947E000C947E0028
:100060000C947E000C947E00000000002400270009
:100070002A0000000000250028002B0000000000DE
:1000800023002600290004040404040404040202DA
:100090000202020203030303030301020408102007
:1000A0004080010204081020010204081020000012
:1000B0000008000201000003040700000000000027
:1000C000000011241FBECFEFD8E0DEBFCDBF11E08E
:1000D000A0E0B1E0E4EDF4E002C005900D92A230A2
:1000E000B107D9F721E0A2E0B1E001C01D92A33130
:1000F000B207E1F70E947B010C9468020C940000A7
:10010000833081F028F4813099F08230A9F008958D
:100110008730A9F08830C9F08430B1F48091800034
:100120008F7D03C0809180008F7780938000089539
:1001300084B58F7784BD089584B58F7DFBCF809182
:10014000B0008F778093B00008958091B0008F7DCC
:10015000F9CFCF93DF93282F30E0F901E255FF4F1D
:100160008491F901E656FF4FD491F901EA57FF4F08
:10017000C491CC23A1F081110E948000EC2FF0E00B
:10018000EE0FFF1FE458FF4FA591B491EC91ED23C2
:1001900081E090E009F480E0DF91CF91089580E064
:1001A00090E0FACF1F93CF93DF93282F30E0F9012F
:1001B000E255FF4F8491F901E656FF4FD491F901C2
:1001C000EA57FF4FC491CC23A9F0162F81110E944A
:1001D0008000EC2FF0E0EE0FFF1FEE58FF4FA591CF
:1001E000B4918FB7F894EC91111108C0D095DE232B
:1001F000DC938FBFDF91CF911F910895DE2BF8CF55
:10020000CF93DF9390E0FC01E656FF4F24918A578D
:100210009F4FFC0184918823D1F090E0880F991FB3
:10022000FC01E859FF4FA591B491FC01EE58FF4F36
:10023000C591D49161110EC09FB7F8948C91E22FB3
:10024000E0958E238C932881E223E8839FBFDF9182
:10025000CF9108958FB7F894EC91E22BEC938FBF78
:10026000F6CF1F920F920FB60F9211242F933F9348
:100270008F939F93AF93BF9380910F019091100143
:10028000A0911101B091120130910E0123E0230FD2
:100290002D3758F50196A11DB11D20930E018093B5
:1002A0000F0190931001A0931101B093120180915E
:1002B0000A0190910B01A0910C01B0910D010196E2
:1002C000A11DB11D80930A0190930B01A0930C0115
:1002D000B0930D01BF91AF919F918F913F912F915D
:1002E0000F900FBE0F901F90189526E8230F0296CF
:1002F000A11DB11DD2CF789484B5826084BD84B530
:10030000816084BD85B5826085BD85B5816085BD10
:1003100080916E00816080936E00109281008091C8
:100320008100826080938100809181008160809350
:100330008100809180008160809380008091B10075
:1003400084608093B1008091B00081608093B000A0
:1003500080917A00846080937A0080917A00826034
:1003600080937A0080917A00816080937A008091F6
:100370007A00806880937A001092C10061E081E089
:100380000E94000160E082E00E94000160E083E0E2
:100390000E94000130E0E32E30E0F32E48EEC42E40
:1003A00043E0D42E54E6252E312C8FB7F89440909C
:1003B0000F015090100160901101709012018FBFD9
:1003C00082E00E94A9008C0183E00E94A900EC0158
:1003D00001151105D9F48091080190910901019747
:1003E000A9F48091000190910101893E934024F08D
:1003F000D0920101C0920001809100019091010111
:100400008C599F4F90930101809300012097D9F45C
:1004100080910601909107010197A9F48091000154
:10042000909101018436910524F4309201012092CB
:1004300000018091000190910101845691099093EF
:100440000101809300018091020190910301A0912C
:100450000401B0910501B301A201481B590B6A0BBD
:100460007B0B80910001909101014C01092E000C41
:10047000AA08BB0884169506A606B70698F061E0A0
:1004800081E00E94D2001093090100930801D093EB
:100490000701C0930601E114F10409F486CF0E941C
:1004A000000083CF880F991F092E000CAA0BBB0BED
:1004B00084179507A607B70710F060E0E1CF4092D8
:1004C0000201509203016092040170920501DBCF9A
:0404D000F894FFCFCE
:0204D400F40131
:00000001FF
