:100000000C945C000C946E000C946E000C946E00CA
:100010000C946E000C946E000C946E000C946E00A8
:100020000C946E000C946E000C946E000C946E0098
:100030000C946E000C946E000C946E000C946E0088
:100040000C94F3000C946E000C946E000C946E00F3
:100050000C946E000C946E000C946E000C946E0068
:100060000C946E000C946E00000000080002010069
:100070000003040700000000000000000000000072
:10008000250028002B0000000000240027002A0083
:10009000040404040404040402020202020203032E
:1000A0000303030301020408102040800102040836
:1000B000102001020408102011241FBECFEFD8E049
:1000C000DEBFCDBF21E0A0E0B1E001C01D92AD30A8
:1000D000B207E1F70E943D010C94EA010C94000084
:1000E00090E0FC01EC55FF4F249180579F4FFC019D
:1000F0008491882399F090E0880F991FFC01EA57BA
:10010000FF4FA591B491FC01E458FF4F8591949164
:100110008FB7F894EC91E22BEC938FBF089590E0A9
:10012000FC01E859FF4F2491FC01EC55FF4F34913D
:10013000FC01E057FF4FE491EE23C9F0222339F090
:10014000233001F1A8F4213019F1223029F1F0E037
:10015000EE0FFF1FE458FF4FA591B4918FB7F894AD
:10016000EC91611126C030953E233C938FBF0895DA
:100170002730A9F02830C9F0243049F78091800059
:100180008F7D03C0809180008F7780938000DFCFC8
:1001900084B58F7784BDDBCF84B58F7DFBCF809115
:1001A000B0008F778093B000D2CF8091B0008F7D68
:1001B000F9CF3E2BDACF60E080E00E948F0060E054
:1001C00081E00E948F0060E082E00E948F0060E08A
:1001D00083E00E948F0060E084E00E948F0060E076
:1001E00085E00C948F001F920F920FB60F9211248E
:1001F0002F933F938F939F93AF93BF938091090168
:1002000090910A01A0910B01B0910C01309108016D
:1002100023E0230F2D3758F50196A11DB11D209322
:1002200008018093090190930A01A0930B01B093F8
:100230000C018091040190910501A0910601B091FB
:1002400007010196A11DB11D809304019093050142
:10025000A0930601B0930701BF91AF919F918F9139
:100260003F912F910F900FBE0F901F90189526E889
:10027000230F0296A11DB11DD2CF789484B5826060
:1002800084BD84B5816084BD85B5826085BD85B53A
:10029000816085BD80916E00816080936E001092B8
:1002A0008100809181008260809381008091810033
:1002B00081608093810080918000816080938000C4
:1002C0008091B10084608093B1008091B000816022
:1002D0008093B00080917A00846080937A0080914E
:1002E0007A00826080937A0080917A0081608093A6
:1002F0007A0080917A00806880937A001092C10021
:1003000080E00E94700081E00E94700082E00E9404
:10031000700083E00E94700084E00E94700085E01D
:100320000E947000C0E0D0E08FB7F89440910901BE
:1003300050910A0160910B0170910C018FBF809167
:10034000000190910101A0910201B09103018A0185
:100350009B01081B190B2A0B3B0BD901C801893ED5
:1003600013E09107A105B10578F40E94DB0061E07C
:1003700080E00E948F0061E085E00E948F0020975E
:1003800099F20E940000D0CF8D3424E09207A1059D
:10039000B10548F40E94DB0061E081E00E948F001B
:1003A00061E084E0EACF85339840A105B10548F4C7
:1003B0000E94DB0061E083E00E948F0061E082E048
:1003C000DCCF4093000150930101609302017093D0
:0803D0000301D5CFF894FFCF23
:00000001FF
